:020000020000FC
:1000000008E00EBF0FE50DBF0FEF0ABB0E94000115
:100010000E9407010E942501183081F401ED0E9421
:100020000D010E942501103451F40E9417010E9415
:100030002501183521F40BBB0E941401FFCF0E944B
:040040001401FCCFDC
:1002000000E001B900E200B904E006BF089504EA85
:1002100006BF06B707FFFDCF089503B904E806BF80
:1002200006B707FFFDCF089504E906BF089504E867
:1002300006BF06B707FFFDCF03B1089504EC06BF64
:1002400006B707FFFDCF03B1089511B11C7F0895D4
:00000001FF
